:100000000C9434000C9451000C9451000C94510049
:100010000C9451000C9451000C9451000C9451001C
:100020000C9451000C9451000C9451000C9451000C
:100030000C9451000C9451000C9451000C945100FC
:100040000C9451000C9451000C9451000C945100EC
:100050000C9451000C9451000C9451000C945100DC
:100060000C9451000C94510011241FBECFEFD8E026
:10007000DEBFCDBF11E0A0E0B1E0E6E6F3E002C0F4
:1000800005900D92A833B107D9F721E0A8E3B1E0BC
:1000900001C01D92A034B207E1F70E9493000C94B6
:1000A000B1010C940000805C80937C0084EC809310
:1000B0007A0080917A0086FDFCCFEAE7F0E080814B
:1000C0008F778083809178009091790008959C01CA
:1000D00040E050E068E478EE81E090E00E945C014E
:1000E000215031093093C5002093C400E1ECF0E0C9
:1000F00080818861808386E08093C200089590911A
:10010000C00095FFFCCF8093C6000895CF93DF9386
:10011000EC0103C00E947F00219688818111FACFF3
:10012000DF91CF910895CF93DF93CDB7DEB72A97B4
:100130000FB6F894DEBF0FBECDBF80E895E20E94F7
:10014000670083E084B984E090E00E9453008C0152
:10015000EAE0F0E0BF010E94480120E3280F20936D
:100160003D01CB01BF010E94480130E3380F3093BD
:100170003801C80164E670E00E944801CB01BF016C
:100180000E94480140E3480F40933C01C80168EEDB
:1001900073E00E944801605D60933B017E0186E050
:1001A000E80EF11C85E0F70111928A95E9F76E835C
:1001B0004F833887298780E091E00E948600C7013D
:1001C0000E9486008CE191E00E9486000038124077
:1001D0006CF495B182E0892785B92FE78AE196E032
:1001E000215080409040E1F700C0000082E090E0A4
:1001F0000E9453008C01EAE0F0E0BF010E94480138
:1002000020E3280F20933F01CB01BF010E9448014A
:1002100030E3380F30933901C80164E670E00E9482
:100220004801CB01BF010E94480140E3480F4093C1
:100230003E01C80168EE73E00E944801605D609372
:100240003A01FE0131967F0185E011928A95E9F726
:1002500069834A833B832C838FE191E00E9486006F
:10026000C7010E9486008CE191E00E948600043F55
:10027000114024F485B1816085B903C085B18E7FBA
:1002800085B98FE493EC0197F1F700C000005BCFD4
:1002900097FB072E16F4009407D077FD09D00E9433
:1002A0007B0107FC05D03EF4909581959F4F089502
:1002B000709561957F4F0895052E97FB1EF400946D
:1002C0000E94730157FD07D00E948F0107FC03D0E5
:1002D0004EF40C94730150954095309521953F4F05
:1002E0004F4F5F4F089590958095709561957F4F22
:1002F0008F4F9F4F0895AA1BBB1B51E107C0AA1F38
:10030000BB1FA617B70710F0A61BB70B881F991FB6
:100310005A95A9F780959095BC01CD010895A1E269
:100320001A2EAA1BBB1BFD010DC0AA1FBB1FEE1F6F
:10033000FF1FA217B307E407F50720F0A21BB30BBA
:10034000E40BF50B661F771F881F991F1A9469F736
:1003500060957095809590959B01AC01BD01CF0192
:060360000895F894FFCFA0
:100366004C6120696E74656E7369646164206465AE
:1003760020727569646F2065733A20000D0A004C7F
:10038600612063616E7469646164206465206C75C4
:080396007A2065733A20000093
:00000001FF
